:02000000A02B33
:10073E00C834F501F601F7019F23F8008301A72BBA
:10074E000730831203139F000130831603138600B4
:10075E0083120313860186150611B52B061CB82BC2
:10076E00B92BEE2B0130F4007408F507F70175086C
:10077E0078020318C32BC42BB52BF608031DC82B08
:10078E00C92BEB2B060CF400F40C740C0139F4009D
:10079E000130F406F40DF40DF40D06087406F73965
:1007AE0074068600060CF400740C0139F400013056
:1007BE00F406F40DF40D06087406FB397406860073
:1007CE00F6010314F60DEB2BF501B52BB52B01300D
:1007DE00F4007408F707F501770878020318F82B70
:1007EE00F92BB52BF601F701B52BB52BB52BB52B88
:0207FE000028D1
:02400E00F8FFB9
:00000001FF
